:10088B00416C6572742053797374656D00526564A5
:0C089B0020416C657274205A6F6E65007D
:10080000C2B0C294C2901208C17BFF7A08798B12E1
:100810000868C2B0C2943090ED7F011208E67F10E4
:100820007E271208AF7BFF7A087998120868D2B049
:0B083000D2947F107E271208AF80CB0F
:1008C1007F381208E67F101208E67F101208E67FD3
:0908D1000C1208E67F800208E623
:0A08E6008FA0C2911208A7C293224E
:0A08F0008FA0D2911208A7C2932234
:060868008B088A09890AD1
:10086E00E4F50BAB08AA09A90A850B827583001261
:0C087E00083BFF60071208F0050B80E744
:01088A00224B
:0808A700C292D2937F647E002F
:1008AF00E4FDFCC3ED9FEC9E50070DBD00010C80D5
:0108BF00F246
:0108C0002215
:030000000208DA19
:0C08DA00787FE4F6D8FD75810B02080061
:10083B00BB010CE58229F582E5833AF583E0225072
:10084B0006E92582F8E622BBFE06E92582F8E222BC
:0D085B00E58229F582E5833AF583E49322D6
:00000001FF
